{
  "_format": "hh-sol-artifact-1",
  "contractName": "IchnaeaCore",
  "sourceName": "contracts/IchnaeaCore.sol",
  "abi": [
    {
      "anonymous": false,
      "inputs": [
        {
          "indexed": true,
          "internalType": "uint32",
          "name": "productId",
          "type": "uint32"
        },
        {
          "indexed": true,
          "internalType": "string",
          "name": "productName",
          "type": "string"
        },
        {
          "indexed": false,
          "internalType": "string",
          "name": "productWeight",
          "type": "string"
        },
        {
          "indexed": false,
          "internalType": "string",
          "name": "ipfsDocumentUrl",
          "type": "string"
        },
        {
          "components": [
            {
              "internalType": "string",
              "name": "companyName",
              "type": "string"
            },
            {
              "internalType": "string",
              "name": "location",
              "type": "string"
            },
            {
              "internalType": "string",
              "name": "travelMethod",
              "type": "string"
            },
            {
              "internalType": "address",
              "name": "signer",
              "type": "address"
            }
          ],
          "indexed": false,
          "internalType": "struct IchnaeaCore.ProductVerifierDetails[]",
          "name": "productVerfierDetails",
          "type": "tuple[]"
        }
      ],
      "name": "ProductCreated",
      "type": "event"
    },
    {
      "anonymous": false,
      "inputs": [
        {
          "indexed": true,
          "internalType": "bytes32",
          "name": "instanceId",
          "type": "bytes32"
        },
        {
          "indexed": true,
          "internalType": "uint32",
          "name": "productId",
          "type": "uint32"
        },
        {
          "components": [
            {
              "internalType": "uint64",
              "name": "timeStamp",
              "type": "uint64"
            },
            {
              "internalType": "bool",
              "name": "signedOff",
              "type": "bool"
            }
          ],
          "indexed": false,
          "internalType": "struct IchnaeaCore.InstanceVerifierDetails[]",
          "name": "instanceVerifierDetails",
          "type": "tuple[]"
        }
      ],
      "name": "UpdateInstance",
      "type": "event"
    },
    {
      "inputs": [
        {
          "internalType": "bytes32",
          "name": "",
          "type": "bytes32"
        },
        {
          "internalType": "uint256",
          "name": "",
          "type": "uint256"
        }
      ],
      "name": "instanceIdToInstanceVerifierSupplyChain",
      "outputs": [
        {
          "internalType": "uint64",
          "name": "timeStamp",
          "type": "uint64"
        },
        {
          "internalType": "bool",
          "name": "signedOff",
          "type": "bool"
        }
      ],
      "stateMutability": "view",
      "type": "function"
    },
    {
      "inputs": [
        {
          "internalType": "bytes32",
          "name": "",
          "type": "bytes32"
        }
      ],
      "name": "instanceIdToProductId",
      "outputs": [
        {
          "internalType": "uint32",
          "name": "",
          "type": "uint32"
        }
      ],
      "stateMutability": "view",
      "type": "function"
    },
    {
      "inputs": [],
      "name": "productIdCounter",
      "outputs": [
        {
          "internalType": "uint32",
          "name": "",
          "type": "uint32"
        }
      ],
      "stateMutability": "view",
      "type": "function"
    },
    {
      "inputs": [
        {
          "internalType": "uint32",
          "name": "",
          "type": "uint32"
        }
      ],
      "name": "productIdToProduct",
      "outputs": [
        {
          "internalType": "string",
          "name": "productName",
          "type": "string"
        },
        {
          "internalType": "string",
          "name": "productWeight",
          "type": "string"
        },
        {
          "internalType": "string",
          "name": "ipfsDocumentUrl",
          "type": "string"
        }
      ],
      "stateMutability": "view",
      "type": "function"
    },
    {
      "inputs": [
        {
          "internalType": "uint32",
          "name": "",
          "type": "uint32"
        },
        {
          "internalType": "uint256",
          "name": "",
          "type": "uint256"
        }
      ],
      "name": "productIdToProductVerifierSupplyChain",
      "outputs": [
        {
          "internalType": "string",
          "name": "companyName",
          "type": "string"
        },
        {
          "internalType": "string",
          "name": "location",
          "type": "string"
        },
        {
          "internalType": "string",
          "name": "travelMethod",
          "type": "string"
        },
        {
          "internalType": "address",
          "name": "signer",
          "type": "address"
        }
      ],
      "stateMutability": "view",
      "type": "function"
    }
  ],
  "bytecode": "0x60a0604052601460ff1660809060ff1681525034801561001e57600080fd5b506080516109cc610037600039600050506109cc6000f3fe608060405234801561001057600080fd5b50600436106100575760003560e01c80631bb33c6d1461005c578063342ae8c61461008e5780634fdce8bf146100ac5780639a64f04b146100dd578063eb120df914610110575b600080fd5b610076600480360381019061007191906105df565b610140565b604051610085939291906106a5565b60405180910390f35b610096610302565b6040516100a39190610700565b60405180910390f35b6100c660048036038101906100c19190610787565b610318565b6040516100d4929190610805565b60405180910390f35b6100f760048036038101906100f2919061082e565b610376565b60405161010794939291906108af565b60405180910390f35b61012a60048036038101906101259190610909565b61057b565b6040516101379190610700565b60405180910390f35b600260205280600052604060002060009150905080600001805461016390610965565b80601f016020809104026020016040519081016040528092919081815260200182805461018f90610965565b80156101dc5780601f106101b1576101008083540402835291602001916101dc565b820191906000526020600020905b8154815290600101906020018083116101bf57829003601f168201915b5050505050908060010180546101f190610965565b80601f016020809104026020016040519081016040528092919081815260200182805461021d90610965565b801561026a5780601f1061023f5761010080835404028352916020019161026a565b820191906000526020600020905b81548152906001019060200180831161024d57829003601f168201915b50505050509080600201805461027f90610965565b80601f01602080910402602001604051908101604052809291908181526020018280546102ab90610965565b80156102f85780601f106102cd576101008083540402835291602001916102f8565b820191906000526020600020905b8154815290600101906020018083116102db57829003601f168201915b5050505050905083565b600160009054906101000a900463ffffffff1681565b6004602052816000526040600020818154811061033457600080fd5b90600052602060002001600091509150508060000160009054906101000a900467ffffffffffffffff16908060000160089054906101000a900460ff16905082565b6003602052816000526040600020818154811061039257600080fd5b9060005260206000209060040201600091509150508060000180546103b690610965565b80601f01602080910402602001604051908101604052809291908181526020018280546103e290610965565b801561042f5780601f106104045761010080835404028352916020019161042f565b820191906000526020600020905b81548152906001019060200180831161041257829003601f168201915b50505050509080600101805461044490610965565b80601f016020809104026020016040519081016040528092919081815260200182805461047090610965565b80156104bd5780601f10610492576101008083540402835291602001916104bd565b820191906000526020600020905b8154815290600101906020018083116104a057829003601f168201915b5050505050908060020180546104d290610965565b80601f01602080910402602001604051908101604052809291908181526020018280546104fe90610965565b801561054b5780601f106105205761010080835404028352916020019161054b565b820191906000526020600020905b81548152906001019060200180831161052e57829003601f168201915b5050505050908060030160009054906101000a900473ffffffffffffffffffffffffffffffffffffffff16905084565b60006020528060005260406000206000915054906101000a900463ffffffff1681565b600080fd5b600063ffffffff82169050919050565b6105bc816105a3565b81146105c757600080fd5b50565b6000813590506105d9816105b3565b92915050565b6000602082840312156105f5576105f461059e565b5b6000610603848285016105ca565b91505092915050565b600081519050919050565b600082825260208201905092915050565b60005b8381101561064657808201518184015260208101905061062b565b83811115610655576000848401525b50505050565b6000601f19601f8301169050919050565b60006106778261060c565b6106818185610617565b9350610691818560208601610628565b61069a8161065b565b840191505092915050565b600060608201905081810360008301526106bf818661066c565b905081810360208301526106d3818561066c565b905081810360408301526106e7818461066c565b9050949350505050565b6106fa816105a3565b82525050565b600060208201905061071560008301846106f1565b92915050565b6000819050919050565b61072e8161071b565b811461073957600080fd5b50565b60008135905061074b81610725565b92915050565b6000819050919050565b61076481610751565b811461076f57600080fd5b50565b6000813590506107818161075b565b92915050565b6000806040838503121561079e5761079d61059e565b5b60006107ac8582860161073c565b92505060206107bd85828601610772565b9150509250929050565b600067ffffffffffffffff82169050919050565b6107e4816107c7565b82525050565b60008115159050919050565b6107ff816107ea565b82525050565b600060408201905061081a60008301856107db565b61082760208301846107f6565b9392505050565b600080604083850312156108455761084461059e565b5b6000610853858286016105ca565b925050602061086485828601610772565b9150509250929050565b600073ffffffffffffffffffffffffffffffffffffffff82169050919050565b60006108998261086e565b9050919050565b6108a98161088e565b82525050565b600060808201905081810360008301526108c9818761066c565b905081810360208301526108dd818661066c565b905081810360408301526108f1818561066c565b905061090060608301846108a0565b95945050505050565b60006020828403121561091f5761091e61059e565b5b600061092d8482850161073c565b91505092915050565b7f4e487b7100000000000000000000000000000000000000000000000000000000600052602260045260246000fd5b6000600282049050600182168061097d57607f821691505b6020821081036109905761098f610936565b5b5091905056fea2646970667358221220c537732006ebfe9665e6db429cc26b2d1eb347894b5b8fc614cddb28be4335c864736f6c634300080d0033",
  "linkReferences": {},
  "deployedLinkReferences": {}
}